:100000000C946C000C947E000C947E000C947E008A
:100010000C947E000C947E000C947E000C947E0068
:100020000C947E000C947E000C947E000C947E0058
:100030000C947E000C947E000C947E000C947E0048
:100040000C947E000C947E000C947E000C947E0038
:100050000C947E000C947E000C947E000C947E0028
:100060000C947E000C947E00C9005002E300500204
:10007000FD00500217015002980150021502500273
:100080003102A90A07042A0442045F048704A40475
:10009000B604DE04EE0438057705C10500064A06FD
:1000A0008906D30612075C079B07E50724086E083C
:1000B000AD08E6081F09340948095C096509790992
:1000C000A909CE09D709E909FB090D0A280A420A3C
:1000D000540A770A9A0AA00A11241FBECFEFD8E06B
:1000E000DEBFCDBF27E0A0E0B1E001C01D92AE3D74
:1000F000B207E1F70E94A00D0C94A9190C9400001E
:100100006F927F928F929F92AF92BF92CF92DF9227
:10011000EF92FF920F931F93CF93DF93CDB7DEB78C
:10012000AB970FB6F894DEBF0FBECDBF89874A8765
:100130005B876C877D870E871F87288B398BFB8AAF
:10014000EA8A19821A821B821C821D821E821F82E9
:1001500018868A899B89FC018081282F207E8A89C4
:100160009B89FC0120838985882F90E0092E000C53
:10017000AA0BBB0B49E050E02CE030E0841B950B50
:100180002817390708F48CC18C5C9F4FFC010C9434
:1001900046192A853B854C855D858E859F85A88976
:1001A000B98982239323A423B5239C01AD0160E088
:1001B00070E0CB0129833A834B835C836D837E831C
:1001C0008F8398876DC12A853B854C855D858E859B
:1001D0009F85A889B989822B932BA42BB52B9C01D1
:1001E000AD0160E070E0CB0129833A834B835C83EF
:1001F0006D837E838F83988753C12A853B854C8589
:100200005D858E859F85A889B98982279327A42734
:10021000B5279C01AD0160E070E0CB0129833A83F2
:100220004B835C836D837E838F83988739C12A8556
:100230003B854C855D858E859F85A889B989820F10
:10024000931FA41FB51F9C01AD0160E070E0CB01BE
:1002500029833A834B835C836D837E838F83988766
:100260002A853B854C855D858E859F85A889B989C2
:1002700082279327A427B527BB230CF40EC18A85B8
:100280009B85AC85BD859C01AD0160E070E0CB0134
:10029000E981FE2FF227FC8BEA81EE2EE326ED8A20
:1002A000EB81FE2EF426FE8AEC810E2F05270F8BA4
:1002B000ED811E2F1627188FEE81FE2FF727F98F5D
:1002C000EF81EE2EE826EA8EE885FE2EF926FB8EDB
:1002D0000C8900700C8F1D8910701D8F8E898070A5
:1002E0008E8FEF89E078EF8FF88DF070F8A3098D8D
:1002F000007009A31A8D10701AA38B8D80708BA3C8
:100300002C8D3D8D4E8D5F8D68A179A18AA19BA119
:10031000A0E00E948E1909F4C0C08A899B89FC0163
:100320008081282F22608A899B89FC012083B5C0A7
:100330002A853B854C855D858E859F85A889B989F1
:1003400079018A01E81AF90A0A0B1B0BD801C701C7
:100350009C01AD0160E070E0CB0129833A834B83BF
:100360005C836D837E838F8398872A853B854C854C
:100370005D858E859F85A889B98982279327A427C3
:10038000B527BB230CF48BC08A859B85AC85BD85C6
:100390009C01AD0160E070E0CB01E9816E2E622628
:1003A000EA817E2E7326EB818E2E8426EC819E2E92
:1003B0009526ED81AE2EA626EE81BE2EB726EF81C4
:1003C000CE2EC826E885DE2ED926062D00700CA379
:1003D000172D10701DA3882D80708EA3E92DE07855
:1003E000EFA3FA2DF070F8A70B2D007009A71C2DB4
:1003F00010701AA78D2D80708BA72CA13DA14EA146
:100400005FA168A579A58AA59BA5A0E00E948E1989
:1004100009F445C08A899B89FC018081282F2260CC
:100420008A899B89FC0120833AC02A853B854C85BB
:100430005D858E859F85A889B989BC01CD010E9403
:100440001419DC01CB019C01AD0160E070E0CB012F
:1004500029833A834B835C836D837E838F83988764
:100460001FC08A859B85AC85BD852E853F854889C3
:100470005989BC01CD010E942419DA01C9019C01EE
:10048000AD0160E070E0CB0129833A834B835C834C
:100490006D837E838F83988703C0000001C00000B6
:1004A000A980BA80CB80DC80ED80FE800F8118852A
:1004B0002A2D3B2D4C2D5D2D6E2D7F2D802F912FC4
:1004C000A0E00E948E1951F48A899B89FC018081E9
:1004D000282F24608A899B89FC0120838A899B8933
:1004E000FC018081882F90E0A0E0B0E0887099271F
:1004F000AA27BB2731E0892B8A2B8B2B09F430E00C
:100500008A899B89FC018081882F90E082709927DD
:1005100021E0892B09F420E0832F8227882351F0E2
:100520008A899B89FC018081282F20618A899B8987
:10053000FC01208329813A814B815C816D817E8120
:100540008F819885A22EB32EC42ED52EE62EF72E9F
:10055000082F192F2A2D3B2D4C2D5D2D6E2D7F2D13
:10056000802F912FAB960FB6F894DEBF0FBECDBF94
:10057000DF91CF911F910F91FF90EF90DF90CF907F
:10058000BF90AF909F908F907F906F900895CF9382
:10059000DF9300D000D0CDB7DEB7109200011092EB
:1005A00001011092020110920301109204011092B5
:1005B0000501109206011092070110920901109294
:1005C000080110920B0110920A0110920C01109276
:1005D0000E0110920D011092100110920F01109255
:1005E0001101109212011092130110921401109235
:1005F0001501109296011092970110929801109295
:10060000990119821A821B821C8218C089819A81E1
:10061000880F991F880F991F8A5E9E4FFC011082D8
:1006200011821282138289819A81AB81BC810196E9
:10063000A11DB11D89839A83AB83BC8389819A8173
:10064000AB81BC818097A105B10500F30E94900C9D
:100650000E943F180E94A90D00000F900F900F906C
:100660000F90DF91CF9108958F929F92AF92BF929A
:10067000CF92DF92EF92FF920F931F93CF93DF936E
:10068000CDB7DEB780911501882F90E081309105BC
:10069000D1F18230910509F4A4C0892B09F06BC710
:1006A00080910801909109010E943817A22EB32E63
:1006B000C42ED52EE62EF72E082F192FA09200015A
:1006C000B0920101C0920201D0920301E0920401B4
:1006D000F092050100930601109307018091080133
:1006E0009091090190930B0180930A018091080178
:1006F000909109010196909309018093080181E08E
:10070000809315013BC7A0900001B0900101C090FB
:100710000201D0900301E0900401F09005010091E6
:100720000601109107012A2D3B2D4C2D5D2D6E2DBC
:100730007F2D802F912F00E30E947219A22EB32EDD
:10074000C42ED52EE62EF72E082F192FC501909313
:100750000E0180930D01A0900001B0900101C090A6
:100760000201D0900301E0900401F0900501009196
:100770000601109107012A2D3B2D4C2D5D2D6E2D6C
:100780007F2D802F912F00E20E947219A22EB32E8E
:10079000C42ED52EE62EF72E082F192FC5019093C3
:1007A000100180930F0120910001309101014091CF
:1007B0000201509103016091040170910501809143
:1007C000060190910701DA01C9018093110190930C
:1007D0001201A0931301B093140182E080931501DC
:1007E000CDC680910D0190910E01CC01A0E0B0E04A
:1007F00040E050E02AE230E0841B950B28173907CF
:1008000008F4A4C68F5B9F4FFC010C9446192091FD
:100810000F01309110018091110190911201A0916E
:100820001301B0911401880F991F880F991F8A5ED8
:100830009E4FFC0180819181A281B381220F331FE1
:10084000220F331F2A5E3E4FF90180839183A283DA
:10085000B3838CC620910F0130911001809111015A
:1008600090911201A0911301B0911401220F331F36
:10087000220F331F2A5E3E4FF90180839183A283AA
:10088000B38374C600910F01109110018091110182
:1008900090911201A0911301B09114010E94F60CE5
:1008A000DC01CB019801220F331F220F331F2A5E78
:1008B0003E4FF90180839183A283B38357C6009191
:1008C0000F01109110018091110190911201A091DE
:1008D0001301B0911401880F991F880F991F8A5E28
:1008E0009E4FFC0180819181A281B3810E94F60C10
:1008F000DC01CB019801220F331F220F331F2A5E28
:100900003E4FF90180839183A283B3832FC68091E8
:10091000110190911201A0911301B0911401880F5F
:10092000991F880F991F8A5E9E4FFC0180819181DB
:10093000A281B38120910F0130911001AC01BD0162
:10094000C9010E94C40C12C680911101909112013C
:10095000A0911301B091140120910F013091100169
:10096000AC01BD01C9010E94C40C00C680911101F7
:1009700090911201A0911301B0911401880F991F59
:10098000880F991F8A5E9E4FFC0180819181A28110
:10099000B38120910F0130911001220F331F220FDC
:1009A000331F2A5E3E4FF9012081318142815381FC
:1009B000AC01BD01C9010E94C40CD8C580910F01D2
:1009C00090911001880F991F880F991F8A5E9E4F82
:1009D000FC011082118212821382C8C580900F011F
:1009E000909010018091110190911201A09113013A
:1009F000B0911401880F991F880F991F8A5E9E4F2E
:100A0000FC01208131814281538180910F019091BD
:100A10001001880F991F880F991F8A5E9E4FFC0155
:100A200080819181A281B3810F2EFCE0EF2EF1E055
:100A3000FF2EF02D89019A01AC01BD0189E00E94D1
:100A40008000A22EB32EC42ED52EE62EF72E082F10
:100A5000192FD601C5019401220F331F220F331F16
:100A60002A5E3E4FF90180839183A283B3837EC5C2
:100A700080900F019090100120911101309112018E
:100A8000409113015091140180910F019091100138
:100A9000880F991F880F991F8A5E9E4FFC018081E5
:100AA0009181A281B3810F2EFCE0EF2EF1E0FF2EA9
:100AB000F02D89019A01AC01BD0189E00E948000FE
:100AC000A22EB32EC42ED52EE62EF72E082F192FC8
:100AD000D601C5019401220F331F220F331F2A5E56
:100AE0003E4FF90180839183A283B3833FC58090F9
:100AF0000F01909010018091110190911201A0912D
:100B00001301B0911401880F991F880F991F8A5EF5
:100B10009E4FFC01208131814281538180910F01E0
:100B200090911001880F991F880F991F8A5E9E4F20
:100B3000FC0180819181A281B3810F2EFCE0EF2E18
:100B4000F1E0FF2EF02D89019A01AC01BD018BE08F
:100B50000E948000A22EB32EC42ED52EE62EF72E94
:100B6000082F192FD601C5019401220F331F220F20
:100B7000331F2A5E3E4FF90180839183A283B383A2
:100B8000F5C480900F0190901001209111013091D7
:100B90001201409113015091140180910F01909125
:100BA0001001880F991F880F991F8A5E9E4FFC01C4
:100BB00080819181A281B3810F2EFCE0EF2EF1E0C4
:100BC000FF2EF02D89019A01AC01BD018BE00E943E
:100BD0008000A22EB32EC42ED52EE62EF72E082F7F
:100BE000192FD601C5019401220F331F220F331F85
:100BF0002A5E3E4FF90180839183A283B383B6C4FA
:100C000080900F019090100180911101909112013C
:100C1000A0911301B0911401880F991F880F991F9B
:100C20008A5E9E4FFC0120813181428153818091F7
:100C30000F0190911001880F991F880F991F8A5EEC
:100C40009E4FFC0180819181A281B3810F2EFCE037
:100C5000EF2EF1E0FF2EF02D89019A01AC01BD01CC
:100C60008DE00E948000A22EB32EC42ED52EE62E3B
:100C7000F72E082F192FD601C5019401220F331F1B
:100C8000220F331F2A5E3E4FF90180839183A28396
:100C9000B3836CC480900F019090100120911101DA
:100CA00030911201409113015091140180910F0174
:100CB00090911001880F991F880F991F8A5E9E4F8F
:100CC000FC0180819181A281B3810F2EFCE0EF2E87
:100CD000F1E0FF2EF02D89019A01AC01BD018DE0FC
:100CE0000E948000A22EB32EC42ED52EE62EF72E03
:100CF000082F192FD601C5019401220F331F220F8F
:100D0000331F2A5E3E4FF90180839183A283B38310
:100D10002DC480900F01909010018091110190914D
:100D20001201A0911301B0911401880F991F880F2F
:100D3000991F8A5E9E4FFC0120813181428153813F
:100D400080910F0190911001880F991F880F991FB2
:100D50008A5E9E4FFC0180819181A281B3810F2E1A
:100D6000FCE0EF2EF1E0FF2EF02D89019A01AC019D
:100D7000BD018FE00E948000A22EB32EC42ED52E7E
:100D8000E62EF72E082F192FD601C5019401220F48
:100D9000331F220F331F2A5E3E4FF9018083918358
:100DA000A283B383E3C380900F0190901001209140
:100DB0001101309112014091130150911401809161
:100DC0000F0190911001880F991F880F991F8A5E5B
:100DD0009E4FFC0180819181A281B3810F2EFCE0A6
:100DE000EF2EF1E0FF2EF02D89019A01AC01BD013B
:100DF0008FE00E948000A22EB32EC42ED52EE62EA8
:100E0000F72E082F192FD601C5019401220F331F89
:100E1000220F331F2A5E3E4FF90180839183A28304
:100E2000B383A4C380900F019090100180911101B1
:100E300090911201A0911301B0911401880F991F94
:100E4000880F991F8A5E9E4FFC012081318142816B
:100E5000538180910F0190911001880F991F880F85
:100E6000991F8A5E9E4FFC0180819181A281B3818E
:100E70000F2EFCE0EF2EF1E0FF2EF02D89019A01FC
:100E8000AC01BD0181E10E948000A22EB32EC42ED0
:100E9000D52EE62EF72E082F192FD601C501940165
:100EA000220F331F220F331F2A5E3E4FF90180832A
:100EB0009183A283B3835AC380900F019090100155
:100EC00020911101309112014091130150911401B0
:100ED00080910F0190911001880F991F880F991F21
:100EE0008A5E9E4FFC0180819181A281B3810F2E89
:100EF000FCE0EF2EF1E0FF2EF02D89019A01AC010C
:100F0000BD0181E10E948000A22EB32EC42ED52EF9
:100F1000E62EF72E082F192FD601C5019401220FB6
:100F2000331F220F331F2A5E3E4FF90180839183C6
:100F3000A283B3831BC380900F0190901001809116
:100F4000110190911201A0911301B0911401880F29
:100F5000991F880F991F8A5E9E4FFC012081318165
:100F60004281538180910F0190911001880F991F48
:100F7000880F991F8A5E9E4FFC0180819181A2811A
:100F8000B3810F2EFCE0EF2EF1E0FF2EF02D890152
:100F90009A01AC01BD0183E10E948000A22EB32E14
:100FA000C42ED52EE62EF72E082F192FD601C501F7
:100FB0009401220F331F220F331F2A5E3E4FF90187
:100FC00080839183A283B383D1C280900F019090DC
:100FD00010012091110130911201409113015091A3
:100FE000140180910F0190911001880F991F880FB3
:100FF000991F8A5E9E4FFC0180819181A281B381FD
:101000000F2EFCE0EF2EF1E0FF2EF02D89019A016A
:10101000AC01BD0183E10E948000A22EB32EC42E3C
:10102000D52EE62EF72E082F192FD601C5019401D3
:10103000220F331F220F331F2A5E3E4FF901808398
:101040009183A283B38392C280900F01909010018C
:101050008091110190911201A0911301B09114019E
:10106000880F991F880F991F8A5E9E4FFC0120816F
:1010700031814281538180910F0190911001880F3D
:10108000991F880F991F8A5E9E4FFC018081918174
:10109000A281B3810F2EFCE0EF2EF1E0FF2EF02DA8
:1010A00089019A01AC01BD0185E10E948000A22E58
:1010B000B32EC42ED52EE62EF72E082F192FD601CB
:1010C000C5019401220F331F220F331F2A5E3E4FAA
:1010D000F90180839183A283B38348C280900F017A
:1010E0009090100120911101309112014091130153
:1010F0005091140180910F0190911001880F991F58
:10110000880F991F8A5E9E4FFC0180819181A28188
:10111000B3810F2EFCE0EF2EF1E0FF2EF02D8901C0
:101120009A01AC01BD0185E10E948000A22EB32E80
:10113000C42ED52EE62EF72E082F192FD601C50165
:101140009401220F331F220F331F2A5E3E4FF901F5
:1011500080839183A283B38309C280900F01909012
:10116000100180910F0190911001880F991F880F35
:10117000991F8A5E9E4FFC0180819181A281B3817B
:101180000F2EFCE0EF2EF1E0FF2EF02D01E010E03D
:1011900020E030E0AC01BD018FE00E948000A22E73
:1011A000B32EC42ED52EE62EF72E082F192FD601DA
:1011B000C5019401220F331F220F331F2A5E3E4FB9
:1011C000F90180839183A283B383D0C180900F0102
:1011D0009090100180910F0190911001880F991F3C
:1011E000880F991F8A5E9E4FFC0180819181A281A8
:1011F000B3810F2EFCE0EF2EF1E0FF2EF02D01E089
:1012000010E020E030E0AC01BD0181E10E948000EF
:10121000A22EB32EC42ED52EE62EF72E082F192F70
:10122000D601C5019401220F331F220F331F2A5EFE
:101230003E4FF90180839183A283B38397C10091CC
:101240000F01109110010E947C18DC01CB01980164
:10125000220F331F220F331F2A5E3E4FF901808376
:101260009183A283B38382C180910F019091100179
:10127000880F991F880F991F8A5E9E4FFC018081FD
:101280009181A281B381BC01CD010E94C0186EC1C1
:101290008091080190910901CC01A0E0B0E0BC016F
:1012A000CD010E94C01880910F0190911001909380
:1012B0000901809308015AC10E947C18DC01CB010E
:1012C000909309018093080151C10E947C18DC01B0
:1012D000CB0180930C010E947C18DC01CB01909320
:1012E00009018093080180910C01806280930C01B8
:1012F0003DC18091110190911201A0911301B09113
:101300001401880F991F880F991F8A5E9E4FFC0158
:10131000208131814281538180910F019091100190
:10132000880F991F880F991F8A5E9E4FFC0180814C
:101330009181A281B3810F2EFCE0EF2EF1E0FF2E10
:10134000F02D89019A01AC01BD0181E10E9480006C
:101350000DC1209111013091120140911301509162
:10136000140180910F0190911001880F991F880F2F
:10137000991F8A5E9E4FFC0180819181A281B38179
:101380000F2EFCE0EF2EF1E0FF2EF02D89019A01E7
:10139000AC01BD0181E10E948000E8C080910F0195
:1013A000909110019093090180930801DFC0809112
:1013B0000C01882F90E084709927892B09F4CBC009
:1013C00080910F0190911001909309018093080181
:1013D000C2C080910C01882F90E084709927892BDE
:1013E00009F0BBC080910F01909110019093090109
:1013F00080930801B2C080910C01882F90E0807129
:101400009927892B09F0ABC080910F0190911001B1
:101410009093090180930801A2C080910C01882F4C
:1014200090E080719927892B09F09BC080910C0175
:10143000882F90E084709927892B09F092C08091C1
:101440000F0190911001909309018093080189C0C8
:1014500080910C01882F90E080719927892B49F4A5
:1014600080910C01882F90E084709927892B09F4D2
:101470007AC080910F01909110019093090180939F
:10148000080171C080910C01882F90E0807199272C
:10149000892B09F46AC080910F01909110019093FB
:1014A00009018093080161C020910F013091100162
:1014B00080910F0190911001880F991F880F991F3B
:1014C0008A5E9E4FFC0180819181A281B381880F49
:1014D000991FAA1FBB1F220F331F220F331F2A5E23
:1014E0003E4FF90180839183A283B3833FC0209153
:1014F0000F013091100180910F0190911001880F20
:10150000991F880F991F8A5E9E4FFC0180819181EF
:10151000A281B381B695A79597958795220F331F22
:10152000220F331F2A5E3E4FF90180839183A283ED
:10153000B3831CC080910C01806280930C0116C0A3
:1015400080910C018F7D80930C0110C00E94C70216
:101550000DC000000BC0000009C0000007C0000063
:1015600005C0000003C0000001C00000109215017A
:101570000E94D00A03C00E94C70200000E94FC0B18
:101580000E944F0B0000DF91CF911F910F91FF90B0
:10159000EF90DF90CF90BF90AF909F908F90089585
:1015A000CF93DF93CDB7DEB728970FB6F894DEBFA1
:1015B0000FBECDBF80910C01882F90E080729927DB
:1015C000892BB9F185E090E00E94F60CDC01CB019B
:1015D00089839A83AB83BC8384E090E00E94F60CFD
:1015E000DC01CB018D839E83AF83B88789819A818B
:1015F000AB81BC8181709927AA27BB27892B8A2BB5
:101600008B2BB9F08D819E81AF81B8858170992730
:10161000AA27BB27892B8A2B8B2B59F040E050E05F
:10162000BA0185E090E00E945C0D82E00E94230BED
:101630000000000028960FB6F894DEBF0FBECDBFA5
:10164000DF91CF910895CF93DF931F92CDB7DEB78F
:1016500089838091080190910901CC01A0E0B0E05C
:10166000BC01CD010E94C01880910C01882F90E030
:10167000A0E0B0E0BC01CD010E94C01880910C0137
:101680008F7D80930C018981882F90E090930901D0
:101690008093080100000F90DF91CF910895CF93C0
:1016A000DF93CDB7DEB72C970FB6F894DEBF0FBE31
:1016B000CDBF82E090E00E94F60CDC01CB018D836F
:1016C0009E83AF83B88783E090E00E94F60CDC0134
:1016D000CB0189879A87AB87BC8719821A821B82C4
:1016E0001C826BC029813A8181E090E002C0880FA2
:1016F000991F2A95E2F79C01990F440B550B898598
:101700009A85AB85BC8582239323A423B523892B9B
:101710008A2B8B2B09F446C029813A8181E090E025
:1017200002C0880F991F2A95E2F79C01990F440B7C
:10173000550B8D819E81AF81B88582239323A4238D
:10174000B52361E0892B8A2B8B2B09F460E029817A
:101750003A8181E090E002C0880F991F2A95E2F754
:101760009C01990F440B550B809196019091970124
:10177000A0919801B091990182239323A423B523CA
:1017800021E0892B8A2B8B2B09F420E0862F8227DE
:10179000882341F040E050E0BA0185E090E00E94EB
:1017A0001A0D14C089819A81AB81BC810196A11D5B
:1017B000B11D89839A83AB83BC8389819A81AB8174
:1017C000BC818097A105B10508F48CCF8D819E81E5
:1017D000AF81B8858093960190939701A09398016B
:1017E000B093990100002C960FB6F894DEBF0FBE9F
:1017F000CDBFDF91CF910895CF93DF93CDB7DEB703
:101800002C970FB6F894DEBF0FBECDBF80E090E0FE
:101810000E94F60CDC01CB0189839A83AB83BC83E5
:1018200081E090E00E94F60CDC01CB018D839E8369
:10183000AF83B88786E290E0FC018081882F90E03A
:10184000A0E0B0E0AC013327222783E290E0FC0166
:101850008081882F90E0982F8827CC01A0E0B0E00D
:10186000282B392B4A2B5B2B89E290E0FC018081ED
:10187000882F90E0A0E0B0E0822B932BA42BB52B17
:1018800089879A87AB87BC878AE290E02981FC012F
:10189000208324E230E089819A81AB81BC81892F49
:1018A0009A2FAB2FBB27F901808327E230E0898193
:1018B0009A81AB81BC81CD01AA27BB27F901808326
:1018C0008BE290E02D81FC01208325E230E08D81C8
:1018D0009E81AF81B885892F9A2FAB2FBB27F90145
:1018E000808328E230E08D819E81AF81B885CD0173
:1018F000AA27BB27F901808389859A85AB85BC859A
:10190000AC01BD0182E090E00E94C40C00002C9666
:101910000FB6F894DEBF0FBECDBFDF91CF91089513
:10192000CF93DF9300D000D0CDB7DEB719821A82F3
:101930001B821C8218C089819A81880F991F880F89
:10194000991F86569E4FFC011082118212821382CB
:1019500089819A81AB81BC810196A11DB11D8983CA
:101960009A83AB83BC8389819A81AB81BC818436A5
:101970009105A105B105F8F200000F900F900F90AE
:101980000F90DF91CF910895CF93DF9300D000D0D7
:1019900000D0CDB7DEB79A8389834B835C836D8398
:1019A0007E8389819A8184369105A8F489819A8100
:1019B000880F991F880F991F9C0126563E4F8B81D7
:1019C0009C81AD81BE81F90180839183A283B38321
:1019D00080E090E002C081E090E026960FB6F89497
:1019E000DEBF0FBECDBFDF91CF910895CF93DF93C0
:1019F00000D0CDB7DEB79A83898389819A818436F6
:101A0000910570F489819A81880F991F880F991F19
:101A100086569E4FFC0180819181A281B38103C0D3
:101A200080E090E0DC01BC01CD010F900F90DF91D0
:101A3000CF910895CF93DF9300D000D000D0CDB7E1
:101A4000DEB79A8389834B835C836D837E83898130
:101A50009A81880F991F880F991F86569E4FFC0107
:101A600020813181428153816B817C8181E090E0D2
:101A700002C0880F991F6A95E2F7092E000CAA0B85
:101A8000BB0B822B932BA42BB52B29813A81220FE0
:101A9000331F220F331F26563E4FF9018083918357
:101AA000A283B383000026960FB6F894DEBF0FBE64
:101AB000CDBFDF91CF910895CF93DF9300D000D0B9
:101AC00000D0CDB7DEB79A8389834B835C836D8367
:101AD0007E8389819A81880F991F880F991F865666
:101AE0009E4FFC0120813181428153816B817C8139
:101AF00081E090E002C0880F991F6A95E2F7809517
:101B00009095092E000CAA0BBB0B82239323A423D0
:101B1000B52329813A81220F331F220F331F265606
:101B20003E4FF90180839183A283B3830000269600
:101B30000FB6F894DEBF0FBECDBFDF91CF910895F1
:101B4000CF93DF93CDB7DEB70E94C7020E94340364
:101B5000FDCFAF92BF92CF92DF92EF92FF920F93A1
:101B60001F93CF93DF93CDB7DEB780912A038823ED
:101B700011F00C942C1781E080932A0320E030E0D0
:101B8000A90163E170E080E290E00E948517A22E37
:101B9000B32EC42ED52EE62EF72E082F192FA09285
:101BA000BE04B092BF04C092C004D092C104E092BF
:101BB000C204F092C3040093C4041093C50420E04F
:101BC00030E0A90160E070E080E090E00E948517BD
:101BD000A22EB32EC42ED52EE62EF72E082F192FA7
:101BE000A092C604B092C704C092C804D092C9049F
:101BF000E092CA04F092CB040093CC041093CD047D
:101C000020E030E0A90164E070E080E290E00E9412
:101C10008517A22EB32EC42ED52EE62EF72E082F12
:101C2000192FA092CE04B092CF04C092D004D092CB
:101C3000D104E092D204F092D3040093D404109320
:101C4000D50420E030E0A90160E070E080E090E0A1
:101C50000E948517A22EB32EC42ED52EE62EF72E67
:101C6000082F192FA092D604B092D704C092D8049E
:101C7000D092D904E092DA04F092DB040093DC0401
:101C80001093DD0422E030E040E050E068E170E0D5
:101C900083E090E00E948517A22EB32EC42ED52E8D
:101CA000E62EF72E082F192FA092DE04B092DF0443
:101CB000C092E004D092E104E092E204F092E304E6
:101CC0000093E4041093E50420E038E040E050E0A5
:101CD00068E170E08AE090E00E948517A22EB32EA2
:101CE000C42ED52EE62EF72E082F192FA092E6042B
:101CF000B092E704C092E804D092E904E092EA04CA
:101D0000F092EB040093EC041093ED0420E030E03B
:101D1000A90169E070E081E290E00E948517A22E9F
:101D2000B32EC42ED52EE62EF72E082F192FA092F3
:101D3000EE04B092EF04C092F004D092F104E0926D
:101D4000F204F092F3040093F4041093F50420E0FD
:101D500030E0A90163E270E08BE190E00E9485171A
:101D6000A22EB32EC42ED52EE62EF72E082F192F15
:101D7000A092F604B092F704C092F804D092F9044D
:101D8000E092FA04F092FB040093FC041093FD042B
:101D900020E030E0A90162E170E080E290E00E9482
:101DA0008517A22EB32EC42ED52EE62EF72E082F81
:101DB000192FA092FE04B092FF04C0920005D092A9
:101DC0000105E0920205F0920305009304051093CB
:101DD000050522E030E040E050E068E170E083E09B
:101DE00090E00E948517A22EB32EC42ED52EE62E8B
:101DF000F72E082F192FA0920605B0920705C09262
:101E00000805D0920905E0920A05F0920B050093AF
:101E10000C0510930D0520E030E140E050E068E152
:101E200070E08AE090E00E948517A22EB32EC42EA7
:101E3000D52EE62EF72E082F192FA0920E05B09260
:101E40000F05C0921005D0921105E0921205F09294
:101E50001305009314051093150520E030E0A90147
:101E60006EE070E081E290E00E948517A22EB32E12
:101E7000C42ED52EE62EF72E082F192FA092160568
:101E8000B0921705C0921805D0921905E0921A0574
:101E9000F0921B0500931C0510931D0520E030E017
:101EA000A9016FE270E08BE190E00E948517A22EFD
:101EB000B32EC42ED52EE62EF72E082F192FA09262
:101EC0001E05B0921F05C0922005D0922105E09218
:101ED0002205F0922305009324051093250520E0A8
:101EE00030E0A90162E170E080E290E00E94851795
:101EF000A22EB32EC42ED52EE62EF72E082F192F84
:101F0000A0922605B0922705C0922805D0922905F7
:101F1000E0922A05F0922B0500932C0510932D05D5
:101F200022E030E040E050E068E170E083E090E0E3
:101F30000E948517A22EB32EC42ED52EE62EF72E84
:101F4000082F192FA0922E05B0922F05C0923005B0
:101F5000D0923105E0923205F092330500933405BA
:101F60001093350520E030E240E050E068E170E099
:101F70008AE090E00E948517A22EB32EC42ED52EA3
:101F8000E62EF72E082F192FA0923605B0923705AE
:101F9000C0923805D0923905E0923A05F0923B059F
:101FA00000933C0510933D0520E030E0A90162E17B
:101FB00070E081E290E00E948517A22EB32EC42E1D
:101FC000D52EE62EF72E082F192FA0923E05B0929F
:101FD0003F05C0924005D0924105E0924205F09243
:101FE0004305009344051093450520E030E0A90126
:101FF0006BE370E08BE190E00E948517A22EB32E78
:10200000C42ED52EE62EF72E082F192FA0924605A6
:10201000B0924705C0924805D0924905E0924A0522
:10202000F0924B0500934C0510934D0520E030E0F5
:10203000A90160E070E08DE190E00E948517A22E7A
:10204000B32EC42ED52EE62EF72E082F192FA092D0
:102050004E05B0924F05C0925005D0925105E092C6
:102060005205F0925305009354051093550520E056
:1020700030E0A90165E170E08BE190E00E948517F6
:10208000A22EB32EC42ED52EE62EF72E082F192FF2
:10209000A0925605B0925705C0925805D0925905A6
:1020A000E0925A05F0925B0500935C0510935D0584
:1020B00020E030E0A90167E470E080E290E00E9457
:1020C0008517A22EB32EC42ED52EE62EF72E082F5E
:1020D000192FA0925E05B0925F05C0926005D09264
:1020E0006105E0926205F092630500936405109328
:1020F000650520E031E040E050E060E170E082E022
:1021000090E00E948517A22EB32EC42ED52EE62E67
:10211000F72E082F192FA0926605B0926705C0927E
:102120006805D0926905E0926A05F0926B0500930C
:102130006C0510936D0520E032E040E050E061E175
:1021400070E082E090E00E948517A22EB32EC42E8C
:10215000D52EE62EF72E082F192FA0926E05B092DD
:102160006F05C0927005D0927105E0927205F092F1
:102170007305009374051093750520E034E040E08A
:1021800050E062E170E082E090E00E948517A22EAC
:10219000B32EC42ED52EE62EF72E082F192FA0927F
:1021A0007605B0927705C0927805D0927905E092D5
:1021B0007A05F0927B0500937C0510937D0520E065
:1021C00037E040E050E063E170E082E090E00E94A0
:1021D0008517A22EB32EC42ED52EE62EF72E082F4D
:1021E000192FA0927E05B0927F05C0928005D092F3
:1021F0008105E0928205F092830500938405109397
:10220000850523E130E040E050E060E070E085E0EB
:1022100090E00E948517A22EB32EC42ED52EE62E56
:10222000F72E082F192FA0928605B0928705C0922D
:102230008805D0928905E0928A05F0928B0500937B
:102240008C0510938D0520E030E0A9016AE170E073
:1022500082E090E00E948517A22EB32EC42ED52EC8
:10226000E62EF72E082F192FA0928E05B0928F051B
:10227000C0929005D0929105E0929205F09293055C
:10228000009394051093950520E030E0A9016CE1DE
:1022900070E082E090E00E948517A22EB32EC42E3B
:1022A000D52EE62EF72E082F192FA0929605B09264
:1022B0009705C0929805D0929905E0929A05F09200
:1022C0009B0500939C0510939D0520E030E0A9013B
:1022D0006EE170E082E090E00E948517A22EB32E9E
:1022E000C42ED52EE62EF72E082F192FA0929E056C
:1022F000B0929F05C092A005D092A105E092A205E0
:10230000F092A3050093A4051093A50520E038E3FF
:1023100040E050E064E170E082E090E00E948517C8
:10232000A22EB32EC42ED52EE62EF72E082F192F4F
:10233000A092A605B092A705C092A805D092A905C3
:10234000E092AA05F092AB050093AC051093AD05A1
:1023500024E130E040E050E061E070E085E090E0B2
:102360000E948517A22EB32EC42ED52EE62EF72E50
:10237000082F192FA092AE05B092AF05C092B005FC
:10238000D092B105E092B205F092B3050093B40586
:102390001093B50520E030E0A90160E070E089E22B
:1023A00090E00E948517A22EB32EC42ED52EE62EC5
:1023B000F72E082F192FA092B605B092B705C0923C
:1023C000B805D092B905E092BA05F092BB0500932A
:1023D000BC051093BD0521E030E040E050E064E032
:1023E00070E086E090E00E948517A22EB32EC42EE6
:1023F000D52EE62EF72E082F192FA092BE05B092EB
:10240000BF05C092C005D092C105E092C205F0920E
:10241000C3050093C4051093C50524E130E040E0F6
:1024200050E063E070E085E090E00E948517A22E06
:10243000B32EC42ED52EE62EF72E082F192FA092DC
:10244000C605B092C705C092C805D092C905E092F2
:10245000CA05F092CB050093CC051093CD0520E082
:1024600030E0A90160E070E08CE190E00E94851707
:10247000A22EB32EC42ED52EE62EF72E082F192FFE
:10248000A092CE05B092CF05C092D005D092D105D2
:10249000E092D205F092D3050093D4051093D505B0
:1024A00020E030E0A9016AE170E08FE190E00E9455
:1024B0008517A22EB32EC42ED52EE62EF72E082F6A
:1024C000192FA092D605B092D705C092D805D09208
:1024D000D905E092DA05F092DB050093DC05109354
:1024E000DD0520E030E0A9016AE270E081E290E0E1
:1024F0000E948517A22EB32EC42ED52EE62EF72EBF
:10250000082F192FA092DE05B092DF05C092E005DA
:10251000D092E105E092E205F092E3050093E40534
:102520001093E50521E030E040E050E068E170E024
:1025300083E090E00E948517A22EB32EC42ED52EE4
:10254000E62EF72E082F192FA092E605B092E70588
:10255000C092E805D092E905E092EA05F092EB0519
:102560000093EC051093ED052FEF3EEF4FEF5FEF7B
:1025700068E170E08AE090E00E948517A22EB32EF9
:10258000C42ED52EE62EF72E082F192FA092EE0579
:10259000B092EF05C092F005D092F105E092F205FD
:1025A000F092F3050093F4051093F50528E130E06F
:1025B00040E050E061E070E085E090E00E94851727
:1025C000A22EB32EC42ED52EE62EF72E082F192FAD
:1025D000A092F605B092F705C092F805D092F905E1
:1025E000E092FA05F092FB050093FC051093FD05BF
:1025F00020E030E0A9016AE170E082E090E00E9412
:102600008517A22EB32EC42ED52EE62EF72E082F18
:10261000192FA092FE05B092FF05C0920006D0923D
:102620000106E0920206F09203060093040610935E
:10263000050620E030E0A90160E070E08CE190E068
:102640000E948517A22EB32EC42ED52EE62EF72E6D
:10265000082F192FA0920606B0920706C09208060E
:10266000D0920906E0920A06F0920B0600930C063F
:1026700010930D0621E030E040E050E068E170E0AA
:1026800083E090E00E948517A22EB32EC42ED52E93
:10269000E62EF72E082F192FA0920E06B0920F06E5
:1026A000C0921006D0921106E0921206F092130624
:1026B000009314061093150620E031E040E050E04E
:1026C00068E170E08CE090E00E948517A22EB32EA6
:1026D000C42ED52EE62EF72E082F192FA0921606FF
:1026E000B0921706C0921806D0921906E0921A0608
:1026F000F0921B0600931C0610931D0628E130E0A3
:1027000040E050E061E070E085E090E00E948517D5
:10271000A22EB32EC42ED52EE62EF72E082F192F5B
:10272000A0921E06B0921F06C0922006D0922106EB
:10273000E0922206F09223060093240610932506C9
:1027400021E030E040E050E06AE170E082E090E0BB
:102750000E948517A22EB32EC42ED52EE62EF72E5C
:10276000082F192FA0922606B0922706C09228069D
:10277000D0922906E0922A06F0922B0600932C06AE
:1027800010932D0620E030E0A90160E070E08CE1BC
:1027900090E00E948517A22EB32EC42ED52EE62ED1
:1027A000F72E082F192FA0922E06B0922F06C09256
:1027B0003006D0923106E0923206F0923306009352
:1027C00034061093350620E030E0A9016CE170E09A
:1027D0008FE190E00E948517A22EB32EC42ED52E35
:1027E000E62EF72E082F192FA0923606B092370644
:1027F000C0923806D0923906E0923A06F0923B0633
:1028000000933C0610933D0620E030E0A90166E30A
:1028100070E081E290E00E948517A22EB32EC42EB4
:10282000D52EE62EF72E082F192FA0923E06B09235
:102830003F06C0924006D0924106E0924206F092D6
:102840004306009344061093450621E030E040E043
:1028500050E068E170E083E090E00E948517A22ECE
:10286000B32EC42ED52EE62EF72E082F192FA092A8
:102870004606B0924706C0924806D0924906E092BA
:102880004A06F0924B0600934C0610934D062FEF2C
:102890003DEF4FEF5FEF68E170E08AE090E00E946B
:1028A0008517A22EB32EC42ED52EE62EF72E082F76
:1028B000192FA0924E06B0924F06C0925006D092A9
:1028C0005106E0925206F09253060093540610937C
:1028D000550628E130E040E050E061E070E085E03E
:1028E00090E00E948517A22EB32EC42ED52EE62E80
:1028F000F72E082F192FA0925606B0925706C092B5
:102900005806D0925906E0925A06F0925B06009360
:102910005C0610935D0620E030E0A9016CE170E0F8
:1029200082E090E00E948517A22EB32EC42ED52EF1
:10293000E62EF72E082F192FA0925E06B0925F06A2
:10294000C0926006D0926106E0926206F092630641
:10295000009364061093650620E030E0A90160E072
:1029600070E08CE190E00E948517A22EB32EC42E59
:10297000D52EE62EF72E082F192FA0926606B092BC
:102980006706C0926806D0926906E0926A06F092E5
:102990006B0600936C0610936D0621E030E040E07A
:1029A00050E068E170E083E090E00E948517A22E7D
:1029B000B32EC42ED52EE62EF72E082F192FA09257
:1029C0006E06B0926F06C0927006D0927106E092C9
:1029D0007206F0927306009374061093750620E059
:1029E00032E040E050E068E170E08CE090E00E946E
:1029F0008517A22EB32EC42ED52EE62EF72E082F25
:102A0000192FA0927606B0927706C0927806D092DF
:102A10007906E0927A06F0927B0600937C0610938A
:102A20007D0628E130E040E050E061E070E085E0C4
:102A300090E00E948517A22EB32EC42ED52EE62E2E
:102A4000F72E082F192FA0927E06B0927F06C09213
:102A50008006D0928106E0928206F092830600936F
:102A600084061093850621E030E040E050E06CE100
:102A700070E082E090E00E948517A22EB32EC42E53
:102A8000D52EE62EF72E082F192FA0928606B0928B
:102A90008706C0928806D0928906E0928A06F09254
:102AA0008B0600938C0610938D0620E030E0A90180
:102AB00060E070E08CE190E00E948517A22EB32EBA
:102AC000C42ED52EE62EF72E082F192FA0928E0693
:102AD000B0928F06C0929006D0929106E092920634
:102AE000F0929306009394061093950620E030E050
:102AF000A9016EE170E08FE190E00E948517A22E9F
:102B0000B32EC42ED52EE62EF72E082F192FA09205
:102B10009606B0929706C0929806D0929906E092D7
:102B20009A06F0929B0600939C0610939D0620E067
:102B300030E0A90162E470E081E290E00E94851734
:102B4000A22EB32EC42ED52EE62EF72E082F192F27
:102B5000A0929E06B0929F06C092A006D092A106B7
:102B6000E092A206F092A3060093A4061093A50695
:102B700021E030E040E050E068E170E083E090E088
:102B80000E948517A22EB32EC42ED52EE62EF72E28
:102B9000082F192FA092A606B092A706C092A806E9
:102BA000D092A906E092AA06F092AB060093AC067A
:102BB0001093AD062FEF3BEF4FEF5FEF68E170E052
:102BC0008AE090E00E948517A22EB32EC42ED52E47
:102BD000E62EF72E082F192FA092AE06B092AF0660
:102BE000C092B006D092B106E092B206F092B3065F
:102BF0000093B4061093B50628E130E040E050E0C1
:102C000061E070E085E090E00E948517A22EB32E6F
:102C1000C42ED52EE62EF72E082F192FA092B60619
:102C2000B092B706C092B806D092B906E092BA0642
:102C3000F092BB060093BC061093BD0620E030E086
:102C4000A9016EE170E082E090E00E948517A22E5B
:102C5000B32EC42ED52EE62EF72E082F192FA092B4
:102C6000BE06B092BF06C092C006D092C106E092E6
:102C7000C206F092C3060093C4061093C50620E076
:102C800030E0A90160E070E08CE190E00E948517DF
:102C9000A22EB32EC42ED52EE62EF72E082F192FD6
:102CA000A092C606B092C706C092C806D092C906C6
:102CB000E092CA06F092CB060093CC061093CD06A4
:102CC00021E030E040E050E068E170E083E090E037
:102CD0000E948517A22EB32EC42ED52EE62EF72ED7
:102CE000082F192FA092CE06B092CF06C092D00620
:102CF000D092D106E092D206F092D3060093D40689
:102D00001093D50620E034E040E050E068E170E048
:102D10008CE090E00E948517A22EB32EC42ED52EF3
:102D2000E62EF72E082F192FA092D606B092D706BE
:102D3000C092D806D092D906E092DA06F092DB066D
:102D40000093DC061093DD0628E130E040E050E01F
:102D500061E070E085E090E00E948517A22EB32E1E
:102D6000C42ED52EE62EF72E082F192FA092DE06A0
:102D7000B092DF06C092E006D092E106E092E20651
:102D8000F092E3060093E4061093E50621E030E0BC
:102D900040E050E06EE170E082E090E00E94851734
:102DA000A22EB32EC42ED52EE62EF72E082F192FC5
:102DB000A092E606B092E706C092E806D092E90635
:102DC000E092EA06F092EB060093EC061093ED0613
:102DD00020E030E0A90160E070E08CE190E00E942A
:102DE0008517A22EB32EC42ED52EE62EF72E082F31
:102DF000192FA092EE06B092EF06C092F006D09284
:102E0000F106E092F206F092F3060093F4061093B6
:102E1000F50620E030E0A90167E470E080E290E090
:102E20000E948517A22EB32EC42ED52EE62EF72E85
:102E3000082F192FA092F606B092F706C092F80656
:102E4000D092F906E092FA06F092FB060093FC0697
:102E50001093FD06000001C00000DF91CF911F918B
:102E60000F91FF90EF90DF90CF90BF90AF900895BB
:102E7000AF92BF92CF92DF92EF92FF920F931F9388
:102E8000CF93DF9300D0CDB7DEB79A838983898152
:102E90009A8184369105A0F489819A81880F991FBF
:102EA000880F991F880F991FFC01E254FB4F208166
:102EB000318142815381648175818681978108C007
:102EC00020E030E040E050E060E070E080E090E042
:102ED000A22EB32EC42ED52EE62EF72E082F192F94
:102EE0002A2D3B2D4C2D5D2D6E2D7F2D802F912F6A
:102EF0000F900F90DF91CF911F910F91FF90EF9066
:102F0000DF90CF90BF90AF9008952F923F924F9255
:102F10005F926F927F928F929F92AF92BF92CF9269
:102F2000DF92EF92FF920F931F93CF93DF93CDB772
:102F3000DEB768970FB6F894DEBF0FBECDBF9A8795
:102F400089877C876B872D873E874F87588B89853C
:102F50009A855C01C12CD12CE12CF12C87012A2D02
:102F60003B2D4C2D5D2D6E2D7F2D802F912F00E35D
:102F70000E945719298B3A8B4B8B5C8B6D8B7E8B08
:102F80008F8B988F8B859C855C01C12CD12CE12C7B
:102F9000F12C87012A2D3B2D4C2D5D2D6E2D7F2D83
:102FA000802F912F00E20E945719A22EB32EC42E1B
:102FB000D52EE62EF72E082F192F29882A283A8891
:102FC0003B284B884C285C885D286D886E287E885D
:102FD0007F288F88802A988C912A8D859E85AF8541
:102FE000B8899C01AD0160E070E0CB01E22DE22BDD
:102FF000E983E32DE32BEA83E42DE42BEB83E52D3A
:10300000E52BEC83E62DE62BED83E72DE72BEE8316
:10301000E82DE82BEF83892D892B888729813A8138
:103020004B815C816D817E818F819885A22EB32E2C
:10303000C42ED52EE62EF72E082F192F2A2D3B2D24
:103040004C2D5D2D6E2D7F2D802F912F68960FB604
:10305000F894DEBF0FBECDBFDF91CF911F910F91CE
:10306000FF90EF90DF90CF90BF90AF909F908F90A8
:103070007F906F905F904F903F902F900895CF93E7
:10308000DF9300D000D0CDB7DEB719821A821B8241
:103090001C8218C089819A81880F991F880F991FF7
:1030A000855D9C4FFC0110821182128213828981FE
:1030B0009A81AB81BC810196A11DB11D89839A8340
:1030C000AB83BC8389819A81AB81BC8185369105B4
:1030D000A105B105F8F683E690E09093BC048093D7
:1030E000BB0481E08093BD0400000F900F900F900F
:1030F0000F90DF91CF910895CF93DF9300D000D050
:10310000CDB7DEB78091BB049091BC04880F991FA6
:10311000880F991F855D9C4FFC0180819181A28160
:10312000B38189839A83AB83BC838091BB049091E4
:10313000BC04880F991F880F991F855D9C4FFC0167
:1031400010821182128213829091BD0481E089273E
:10315000882349F08091BB049091BC040196909320
:10316000BC048093BB0489819A81AB81BC81BC0182
:10317000CD010F900F900F900F90DF91CF91089598
:10318000CF93DF9300D000D0CDB7DEB769837A83C9
:103190008B839C838091BB049091BC04892B19F490
:1031A00081E090E03AC08091BD048823B9F080911D
:1031B000BB049091BC04880F991F880F991F9C0134
:1031C000255D3C4F89819A81AB81BC81F901808367
:1031D0009183A283B3831092BD041DC08091BB0470
:1031E0009091BC0401979093BC048093BB048091A0
:1031F000BB049091BC04880F991F880F991F9C01F4
:10320000255D3C4F89819A81AB81BC81F901808326
:103210009183A283B38380E090E00F900F900F9092
:103220000F90DF91CF910895DB018F939F930E94C0
:103230004C19BF91AF91A29F800D911DA39F900D3E
:10324000B29F900D11240895A1E21A2EAA1BBB1B58
:10325000FD010DC0AA1FBB1FEE1FFF1FA217B30762
:10326000E407F50720F0A21BB30BE40BF50B661F78
:10327000771F881F991F1A9469F76095709580953C
:1032800090959B01AC01BD01CF010895EE0FFF1F8A
:103290000590F491E02D09940E949A19A59F900D34
:1032A000B49F900DA49F800D911D112408950F933C
:1032B000083090F0982F872F762F652F542F432FAB
:1032C000322F22270850F4CF220F331F441F551FDF
:1032D000661F771F881F991F0A95B2F70F910895EF
:1032E00097FB10F8169400080F93083098F00850D8
:1032F000232F342F452F562F672F782F892F902D6E
:10330000F4CF059497958795779567955795479549
:10331000379527950A95AAF70F9108950024A7FDE0
:1033200000942A173005400550056005700580059A
:1033300090050895A29FB001B39FC001A39F700D97
:10334000811D1124911DB29F700D811D1124911DAD
:063350000895F894FFCF80
:00000001FF
